{
  "address": "0x29f0c860191162858cf152567301Fc2F1415d639",
  "abi": [
    {
      "inputs": [
        {
          "internalType": "address",
          "name": "",
          "type": "address"
        }
      ],
      "name": "balances",
      "outputs": [
        {
          "internalType": "uint256",
          "name": "",
          "type": "uint256"
        }
      ],
      "stateMutability": "view",
      "type": "function"
    },
    {
      "inputs": [
        {
          "internalType": "string",
          "name": "title",
          "type": "string"
        },
        {
          "internalType": "string",
          "name": "user",
          "type": "string"
        },
        {
          "internalType": "string",
          "name": "shortDescription",
          "type": "string"
        },
        {
          "internalType": "string",
          "name": "longDescription",
          "type": "string"
        },
        {
          "internalType": "string",
          "name": "category",
          "type": "string"
        },
        {
          "internalType": "uint256",
          "name": "goal",
          "type": "uint256"
        },
        {
          "internalType": "address",
          "name": "recipient",
          "type": "address"
        }
      ],
      "name": "createFunding",
      "outputs": [],
      "stateMutability": "nonpayable",
      "type": "function"
    },
    {
      "inputs": [
        {
          "internalType": "uint256",
          "name": "id",
          "type": "uint256"
        }
      ],
      "name": "fundFunding",
      "outputs": [],
      "stateMutability": "payable",
      "type": "function"
    },
    {
      "inputs": [
        {
          "internalType": "uint256",
          "name": "",
          "type": "uint256"
        }
      ],
      "name": "fundingList",
      "outputs": [
        {
          "internalType": "uint256",
          "name": "id",
          "type": "uint256"
        },
        {
          "internalType": "string",
          "name": "title",
          "type": "string"
        },
        {
          "internalType": "string",
          "name": "user",
          "type": "string"
        },
        {
          "internalType": "string",
          "name": "shortDescription",
          "type": "string"
        },
        {
          "internalType": "string",
          "name": "longDescription",
          "type": "string"
        },
        {
          "internalType": "string",
          "name": "category",
          "type": "string"
        },
        {
          "internalType": "uint256",
          "name": "goal",
          "type": "uint256"
        },
        {
          "internalType": "uint256",
          "name": "totalEarned",
          "type": "uint256"
        },
        {
          "internalType": "address",
          "name": "creator",
          "type": "address"
        },
        {
          "internalType": "address",
          "name": "recipient",
          "type": "address"
        },
        {
          "internalType": "uint256",
          "name": "timestamp",
          "type": "uint256"
        },
        {
          "internalType": "bool",
          "name": "isFundingComplete",
          "type": "bool"
        }
      ],
      "stateMutability": "view",
      "type": "function"
    },
    {
      "inputs": [
        {
          "internalType": "uint256",
          "name": "",
          "type": "uint256"
        }
      ],
      "name": "fundings",
      "outputs": [
        {
          "internalType": "uint256",
          "name": "id",
          "type": "uint256"
        },
        {
          "internalType": "string",
          "name": "title",
          "type": "string"
        },
        {
          "internalType": "string",
          "name": "user",
          "type": "string"
        },
        {
          "internalType": "string",
          "name": "shortDescription",
          "type": "string"
        },
        {
          "internalType": "string",
          "name": "longDescription",
          "type": "string"
        },
        {
          "internalType": "string",
          "name": "category",
          "type": "string"
        },
        {
          "internalType": "uint256",
          "name": "goal",
          "type": "uint256"
        },
        {
          "internalType": "uint256",
          "name": "totalEarned",
          "type": "uint256"
        },
        {
          "internalType": "address",
          "name": "creator",
          "type": "address"
        },
        {
          "internalType": "address",
          "name": "recipient",
          "type": "address"
        },
        {
          "internalType": "uint256",
          "name": "timestamp",
          "type": "uint256"
        },
        {
          "internalType": "bool",
          "name": "isFundingComplete",
          "type": "bool"
        }
      ],
      "stateMutability": "view",
      "type": "function"
    },
    {
      "inputs": [],
      "name": "nextId",
      "outputs": [
        {
          "internalType": "uint256",
          "name": "",
          "type": "uint256"
        }
      ],
      "stateMutability": "view",
      "type": "function"
    },
    {
      "inputs": [],
      "name": "retrieveAllFundings",
      "outputs": [
        {
          "components": [
            {
              "internalType": "uint256",
              "name": "id",
              "type": "uint256"
            },
            {
              "internalType": "string",
              "name": "title",
              "type": "string"
            },
            {
              "internalType": "string",
              "name": "user",
              "type": "string"
            },
            {
              "internalType": "string",
              "name": "shortDescription",
              "type": "string"
            },
            {
              "internalType": "string",
              "name": "longDescription",
              "type": "string"
            },
            {
              "internalType": "string",
              "name": "category",
              "type": "string"
            },
            {
              "internalType": "uint256",
              "name": "goal",
              "type": "uint256"
            },
            {
              "internalType": "uint256",
              "name": "totalEarned",
              "type": "uint256"
            },
            {
              "internalType": "address",
              "name": "creator",
              "type": "address"
            },
            {
              "internalType": "address",
              "name": "recipient",
              "type": "address"
            },
            {
              "internalType": "uint256",
              "name": "timestamp",
              "type": "uint256"
            },
            {
              "internalType": "bool",
              "name": "isFundingComplete",
              "type": "bool"
            }
          ],
          "internalType": "struct CreateFunding.Funding[]",
          "name": "",
          "type": "tuple[]"
        }
      ],
      "stateMutability": "view",
      "type": "function"
    },
    {
      "inputs": [
        {
          "internalType": "uint256",
          "name": "id",
          "type": "uint256"
        }
      ],
      "name": "retrieveById",
      "outputs": [
        {
          "components": [
            {
              "internalType": "uint256",
              "name": "id",
              "type": "uint256"
            },
            {
              "internalType": "string",
              "name": "title",
              "type": "string"
            },
            {
              "internalType": "string",
              "name": "user",
              "type": "string"
            },
            {
              "internalType": "string",
              "name": "shortDescription",
              "type": "string"
            },
            {
              "internalType": "string",
              "name": "longDescription",
              "type": "string"
            },
            {
              "internalType": "string",
              "name": "category",
              "type": "string"
            },
            {
              "internalType": "uint256",
              "name": "goal",
              "type": "uint256"
            },
            {
              "internalType": "uint256",
              "name": "totalEarned",
              "type": "uint256"
            },
            {
              "internalType": "address",
              "name": "creator",
              "type": "address"
            },
            {
              "internalType": "address",
              "name": "recipient",
              "type": "address"
            },
            {
              "internalType": "uint256",
              "name": "timestamp",
              "type": "uint256"
            },
            {
              "internalType": "bool",
              "name": "isFundingComplete",
              "type": "bool"
            }
          ],
          "internalType": "struct CreateFunding.Funding",
          "name": "",
          "type": "tuple"
        }
      ],
      "stateMutability": "view",
      "type": "function"
    }
  ],
  "transactionHash": "0x904b6ab60165dd549fbc57731dec6ec7e6c43f90470ed910f11728f15b463e61",
  "args": [],
  "numDeployments": 1,
  "solcInputHash": "4face61a882c168a241a5bce1d41091c",
  "bytecode": "0x6080604052600160035534801561001557600080fd5b50611c3b806100256000396000f3fe60806040526004361061007b5760003560e01c80636e0299801161004e5780636e029980146101345780639efe294214610161578063d13cb1fb14610176578063d90769e01461019657600080fd5b8063039be558146100805780631b3a1c67146100c157806327e235e3146100e357806361b8ce8c1461011e575b600080fd5b34801561008c57600080fd5b506100a061009b3660046115fa565b6101b6565b6040516100b89c9b9a99989796959493929190611659565b60405180910390f35b3480156100cd57600080fd5b506100d66104db565b6040516100b8919061180a565b3480156100ef57600080fd5b506101106100fe366004611888565b60006020819052908152604090205481565b6040519081526020016100b8565b34801561012a57600080fd5b5061011060035481565b34801561014057600080fd5b5061015461014f3660046115fa565b610872565b6040516100b891906118aa565b61017461016f3660046115fa565b610c3a565b005b34801561018257600080fd5b506100a06101913660046115fa565b610e74565b3480156101a257600080fd5b506101746101b1366004611960565b610e95565b600281815481106101c657600080fd5b60009182526020909120600c909102018054600182018054919350906101eb90611a4c565b80601f016020809104026020016040519081016040528092919081815260200182805461021790611a4c565b80156102645780601f1061023957610100808354040283529160200191610264565b820191906000526020600020905b81548152906001019060200180831161024757829003601f168201915b50505050509080600201805461027990611a4c565b80601f01602080910402602001604051908101604052809291908181526020018280546102a590611a4c565b80156102f25780601f106102c7576101008083540402835291602001916102f2565b820191906000526020600020905b8154815290600101906020018083116102d557829003601f168201915b50505050509080600301805461030790611a4c565b80601f016020809104026020016040519081016040528092919081815260200182805461033390611a4c565b80156103805780601f1061035557610100808354040283529160200191610380565b820191906000526020600020905b81548152906001019060200180831161036357829003601f168201915b50505050509080600401805461039590611a4c565b80601f01602080910402602001604051908101604052809291908181526020018280546103c190611a4c565b801561040e5780601f106103e35761010080835404028352916020019161040e565b820191906000526020600020905b8154815290600101906020018083116103f157829003601f168201915b50505050509080600501805461042390611a4c565b80601f016020809104026020016040519081016040528092919081815260200182805461044f90611a4c565b801561049c5780601f106104715761010080835404028352916020019161049c565b820191906000526020600020905b81548152906001019060200180831161047f57829003601f168201915b5050506006840154600785015460088601546009870154600a880154600b90980154969793969295506001600160a01b03918216945016919060ff168c565b60606002805480602002602001604051908101604052809291908181526020016000905b8282101561086957838290600052602060002090600c0201604051806101800160405290816000820154815260200160018201805461053d90611a4c565b80601f016020809104026020016040519081016040528092919081815260200182805461056990611a4c565b80156105b65780601f1061058b576101008083540402835291602001916105b6565b820191906000526020600020905b81548152906001019060200180831161059957829003601f168201915b505050505081526020016002820180546105cf90611a4c565b80601f01602080910402602001604051908101604052809291908181526020018280546105fb90611a4c565b80156106485780601f1061061d57610100808354040283529160200191610648565b820191906000526020600020905b81548152906001019060200180831161062b57829003601f168201915b5050505050815260200160038201805461066190611a4c565b80601f016020809104026020016040519081016040528092919081815260200182805461068d90611a4c565b80156106da5780601f106106af576101008083540402835291602001916106da565b820191906000526020600020905b8154815290600101906020018083116106bd57829003601f168201915b505050505081526020016004820180546106f390611a4c565b80601f016020809104026020016040519081016040528092919081815260200182805461071f90611a4c565b801561076c5780601f106107415761010080835404028352916020019161076c565b820191906000526020600020905b81548152906001019060200180831161074f57829003601f168201915b5050505050815260200160058201805461078590611a4c565b80601f01602080910402602001604051908101604052809291908181526020018280546107b190611a4c565b80156107fe5780601f106107d3576101008083540402835291602001916107fe565b820191906000526020600020905b8154815290600101906020018083116107e157829003601f168201915b505050918352505060068201546020808301919091526007830154604083015260088301546001600160a01b0390811660608401526009840154166080830152600a83015460a0830152600b9092015460ff16151560c09091015290825260019290920191016104ff565b50505050905090565b6108ea604051806101800160405280600081526020016060815260200160608152602001606081526020016060815260200160608152602001600081526020016000815260200160006001600160a01b0316815260200160006001600160a01b03168152602001600081526020016000151581525090565b600082815260016020818152604092839020835161018081019094528054845291820180549184019161091c90611a4c565b80601f016020809104026020016040519081016040528092919081815260200182805461094890611a4c565b80156109955780601f1061096a57610100808354040283529160200191610995565b820191906000526020600020905b81548152906001019060200180831161097857829003601f168201915b505050505081526020016002820180546109ae90611a4c565b80601f01602080910402602001604051908101604052809291908181526020018280546109da90611a4c565b8015610a275780601f106109fc57610100808354040283529160200191610a27565b820191906000526020600020905b815481529060010190602001808311610a0a57829003601f168201915b50505050508152602001600382018054610a4090611a4c565b80601f0160208091040260200160405190810160405280929190818152602001828054610a6c90611a4c565b8015610ab95780601f10610a8e57610100808354040283529160200191610ab9565b820191906000526020600020905b815481529060010190602001808311610a9c57829003601f168201915b50505050508152602001600482018054610ad290611a4c565b80601f0160208091040260200160405190810160405280929190818152602001828054610afe90611a4c565b8015610b4b5780601f10610b2057610100808354040283529160200191610b4b565b820191906000526020600020905b815481529060010190602001808311610b2e57829003601f168201915b50505050508152602001600582018054610b6490611a4c565b80601f0160208091040260200160405190810160405280929190818152602001828054610b9090611a4c565b8015610bdd5780601f10610bb257610100808354040283529160200191610bdd565b820191906000526020600020905b815481529060010190602001808311610bc057829003601f168201915b5050509183525050600682015460208201526007820154604082015260088201546001600160a01b0390811660608301526009830154166080820152600a82015460a0820152600b9091015460ff16151560c09091015292915050565b600081118015610c4c57506002548111155b610c905760405162461bcd60e51b815260206004820152601060248201526f115b9d195c8818481d985b1a59081a5960821b60448201526064015b60405180910390fd5b60008181526001602052604090206006810154600790910154610cb4903490611a9c565b1115610d145760405162461bcd60e51b815260206004820152602960248201527f416d6f756e74206d757374206265206c657373207468616e206f7220657175616044820152681b081d1bc819dbd85b60ba1b6064820152608401610c87565b3360009081526020819052604081208054349290610d33908490611a9c565b909155505060008181526001602052604081206007018054349290610d59908490611a9c565b909155503490506002610d6d600184611ab5565b81548110610d7d57610d7d611ac8565b90600052602060002090600c02016007016000828254610d9d9190611a9c565b90915550506000818152600160205260409020600681015460079091015403610e71576000818152600160208190526040909120600b01805460ff1916821790556002610dea8284611ab5565b81548110610dfa57610dfa611ac8565b60009182526020808320600c92909202909101600b01805460ff19169315159390931790925582815260019091526040808220600981015460079091015491516001600160a01b039091169283926108fc811502929091818181858888f19350505050158015610e6e573d6000803e3d6000fd5b50505b50565b6001602081905260009182526040909120805491810180546101eb90611a4c565b6000875111610ede5760405162461bcd60e51b81526020600482015260156024820152745469746c652063616e6e6f7420626520656d70747960581b6044820152606401610c87565b601e87511115610f425760405162461bcd60e51b815260206004820152602960248201527f5469746c652063616e6e6f74206265206c6f6e676572207468616e203330206360448201526868617261637465727360b81b6064820152608401610c87565b6000865111610f8a5760405162461bcd60e51b8152602060048201526014602482015273557365722063616e6e6f7420626520656d70747960601b6044820152606401610c87565b600f86511115610fed5760405162461bcd60e51b815260206004820152602860248201527f557365722063616e6e6f74206265206c6f6e676572207468616e203135206368604482015267617261637465727360c01b6064820152608401610c87565b60008551116110485760405162461bcd60e51b815260206004820152602160248201527f53686f7274206465736372697074696f6e2063616e6e6f7420626520656d70746044820152607960f81b6064820152608401610c87565b6046855111156110b85760405162461bcd60e51b815260206004820152603560248201527f53686f7274206465736372697074696f6e2063616e6e6f74206265206c6f6e676044820152746572207468616e203730206368617261637465727360581b6064820152608401610c87565b60008451116111095760405162461bcd60e51b815260206004820181905260248201527f4c6f6e67206465736372697074696f6e2063616e6e6f7420626520656d7074796044820152606401610c87565b60c8845111156111795760405162461bcd60e51b815260206004820152603560248201527f4c6f6e67206465736372697074696f6e2063616e6e6f74206265206c6f6e676560448201527472207468616e20323030206368617261637465727360581b6064820152608401610c87565b60008351116111ca5760405162461bcd60e51b815260206004820152601860248201527f43617465676f72792063616e6e6f7420626520656d70747900000000000000006044820152606401610c87565b600f835111156112315760405162461bcd60e51b815260206004820152602c60248201527f43617465676f72792063616e6e6f74206265206c6f6e676572207468616e203160448201526b35206368617261637465727360a01b6064820152608401610c87565b600082116112815760405162461bcd60e51b815260206004820152601e60248201527f476f616c206d7573742062652067726561746572207468616e207a65726f00006044820152606401610c87565b6001600160a01b0381166112d75760405162461bcd60e51b815260206004820152601e60248201527f526563697069656e742061646472657373206973206e6f742076616c696400006044820152606401610c87565b306001600160a01b0382160361133f5760405162461bcd60e51b815260206004820152602760248201527f526563697069656e742063616e6e6f742062652074686520636f6e74726163746044820152661034ba39b2b63360c91b6064820152608401610c87565b604080516101808101825260035480825260208083018b81528385018b9052606084018a90526080840189905260a0840188905260c08401879052600060e08501819052336101008601526001600160a01b038716610120860152426101408601526101608501819052928352600191829052939091208251815592519192839290918201906113cf9082611b2c565b50604082015160028201906113e49082611b2c565b50606082015160038201906113f99082611b2c565b506080820151600482019061140e9082611b2c565b5060a082015160058201906114239082611b2c565b5060c0820151600682015560e082015160078201556101008201516008820180546001600160a01b039283166001600160a01b031991821617909155610120840151600984018054919093169116179055610140820151600a82015561016090910151600b909101805491151560ff19909216919091179055600280546001810182556000919091528151600c9091027f405787fa12a823e0f2b7631cc41b3ba8828b3321ca811111fa75cd3aa3bb5ace810191825560208301518392917f405787fa12a823e0f2b7631cc41b3ba8828b3321ca811111fa75cd3aa3bb5acf019061150e9082611b2c565b50604082015160028201906115239082611b2c565b50606082015160038201906115389082611b2c565b506080820151600482019061154d9082611b2c565b5060a082015160058201906115629082611b2c565b5060c0820151600682015560e082015160078201556101008201516008820180546001600160a01b039283166001600160a01b031991821617909155610120840151600984018054919093169116179055610140820151600a82015561016090910151600b909101805491151560ff19909216919091179055600380549060006115eb83611bec565b91905055505050505050505050565b60006020828403121561160c57600080fd5b5035919050565b6000815180845260005b818110156116395760208185018101518683018201520161161d565b506000602082860101526020601f19601f83011685010191505092915050565b60006101808e83528060208401526116738184018f611613565b90508281036040840152611687818e611613565b9050828103606084015261169b818d611613565b905082810360808401526116af818c611613565b905082810360a08401526116c3818b611613565b60c084018a905260e084018990526001600160a01b03888116610100860152871661012085015291506116f39050565b8361014083015261170961016083018415159052565b9d9c50505050505050505050505050565b600061018082518452602083015181602086015261173a82860182611613565b915050604083015184820360408601526117548282611613565b9150506060830151848203606086015261176e8282611613565b915050608083015184820360808601526117888282611613565b91505060a083015184820360a08601526117a28282611613565b91505060c083015160c085015260e083015160e0850152610100808401516117d4828701826001600160a01b03169052565b5050610120838101516001600160a01b031690850152610140808401519085015261016092830151151592909301919091525090565b6000602080830181845280855180835260408601915060408160051b870101925083870160005b8281101561185f57603f1988860301845261184d85835161171a565b94509285019290850190600101611831565b5092979650505050505050565b80356001600160a01b038116811461188357600080fd5b919050565b60006020828403121561189a57600080fd5b6118a38261186c565b9392505050565b6020815260006118a3602083018461171a565b634e487b7160e01b600052604160045260246000fd5b600082601f8301126118e457600080fd5b813567ffffffffffffffff808211156118ff576118ff6118bd565b604051601f8301601f19908116603f01168101908282118183101715611927576119276118bd565b8160405283815286602085880101111561194057600080fd5b836020870160208301376000602085830101528094505050505092915050565b600080600080600080600060e0888a03121561197b57600080fd5b873567ffffffffffffffff8082111561199357600080fd5b61199f8b838c016118d3565b985060208a01359150808211156119b557600080fd5b6119c18b838c016118d3565b975060408a01359150808211156119d757600080fd5b6119e38b838c016118d3565b965060608a01359150808211156119f957600080fd5b611a058b838c016118d3565b955060808a0135915080821115611a1b57600080fd5b50611a288a828b016118d3565b93505060a08801359150611a3e60c0890161186c565b905092959891949750929550565b600181811c90821680611a6057607f821691505b602082108103611a8057634e487b7160e01b600052602260045260246000fd5b50919050565b634e487b7160e01b600052601160045260246000fd5b80820180821115611aaf57611aaf611a86565b92915050565b81810381811115611aaf57611aaf611a86565b634e487b7160e01b600052603260045260246000fd5b601f821115610e6e57600081815260208120601f850160051c81016020861015611b055750805b601f850160051c820191505b81811015611b2457828155600101611b11565b505050505050565b815167ffffffffffffffff811115611b4657611b466118bd565b611b5a81611b548454611a4c565b84611ade565b602080601f831160018114611b8f5760008415611b775750858301515b600019600386901b1c1916600185901b178555611b24565b600085815260208120601f198616915b82811015611bbe57888601518255948401946001909101908401611b9f565b5085821015611bdc5787850151600019600388901b60f8161c191681555b5050505050600190811b01905550565b600060018201611bfe57611bfe611a86565b506001019056fea2646970667358221220557b02e15dbe7ca59978779c7593763f923d2c5401f373e3494a5a5b4bdd234564736f6c63430008140033",
  "devdoc": {
    "kind": "dev",
    "methods": {},
    "version": 1
  },
  "userdoc": {
    "kind": "user",
    "methods": {},
    "version": 1
  },
  "storageLayout": {
    "storage": [
      {
        "astId": 30,
        "contract": "contracts/CreateFunding.sol:CreateFunding",
        "label": "balances",
        "offset": 0,
        "slot": "0",
        "type": "t_mapping(t_address,t_uint256)"
      },
      {
        "astId": 35,
        "contract": "contracts/CreateFunding.sol:CreateFunding",
        "label": "fundings",
        "offset": 0,
        "slot": "1",
        "type": "t_mapping(t_uint256,t_struct(Funding)26_storage)"
      },
      {
        "astId": 39,
        "contract": "contracts/CreateFunding.sol:CreateFunding",
        "label": "fundingList",
        "offset": 0,
        "slot": "2",
        "type": "t_array(t_struct(Funding)26_storage)dyn_storage"
      },
      {
        "astId": 42,
        "contract": "contracts/CreateFunding.sol:CreateFunding",
        "label": "nextId",
        "offset": 0,
        "slot": "3",
        "type": "t_uint256"
      }
    ],
    "types": {
      "t_address": {
        "encoding": "inplace",
        "label": "address",
        "numberOfBytes": "20"
      },
      "t_array(t_struct(Funding)26_storage)dyn_storage": {
        "base": "t_struct(Funding)26_storage",
        "encoding": "dynamic_array",
        "label": "struct CreateFunding.Funding[]",
        "numberOfBytes": "32"
      },
      "t_bool": {
        "encoding": "inplace",
        "label": "bool",
        "numberOfBytes": "1"
      },
      "t_mapping(t_address,t_uint256)": {
        "encoding": "mapping",
        "key": "t_address",
        "label": "mapping(address => uint256)",
        "numberOfBytes": "32",
        "value": "t_uint256"
      },
      "t_mapping(t_uint256,t_struct(Funding)26_storage)": {
        "encoding": "mapping",
        "key": "t_uint256",
        "label": "mapping(uint256 => struct CreateFunding.Funding)",
        "numberOfBytes": "32",
        "value": "t_struct(Funding)26_storage"
      },
      "t_string_storage": {
        "encoding": "bytes",
        "label": "string",
        "numberOfBytes": "32"
      },
      "t_struct(Funding)26_storage": {
        "encoding": "inplace",
        "label": "struct CreateFunding.Funding",
        "members": [
          {
            "astId": 3,
            "contract": "contracts/CreateFunding.sol:CreateFunding",
            "label": "id",
            "offset": 0,
            "slot": "0",
            "type": "t_uint256"
          },
          {
            "astId": 5,
            "contract": "contracts/CreateFunding.sol:CreateFunding",
            "label": "title",
            "offset": 0,
            "slot": "1",
            "type": "t_string_storage"
          },
          {
            "astId": 7,
            "contract": "contracts/CreateFunding.sol:CreateFunding",
            "label": "user",
            "offset": 0,
            "slot": "2",
            "type": "t_string_storage"
          },
          {
            "astId": 9,
            "contract": "contracts/CreateFunding.sol:CreateFunding",
            "label": "shortDescription",
            "offset": 0,
            "slot": "3",
            "type": "t_string_storage"
          },
          {
            "astId": 11,
            "contract": "contracts/CreateFunding.sol:CreateFunding",
            "label": "longDescription",
            "offset": 0,
            "slot": "4",
            "type": "t_string_storage"
          },
          {
            "astId": 13,
            "contract": "contracts/CreateFunding.sol:CreateFunding",
            "label": "category",
            "offset": 0,
            "slot": "5",
            "type": "t_string_storage"
          },
          {
            "astId": 15,
            "contract": "contracts/CreateFunding.sol:CreateFunding",
            "label": "goal",
            "offset": 0,
            "slot": "6",
            "type": "t_uint256"
          },
          {
            "astId": 17,
            "contract": "contracts/CreateFunding.sol:CreateFunding",
            "label": "totalEarned",
            "offset": 0,
            "slot": "7",
            "type": "t_uint256"
          },
          {
            "astId": 19,
            "contract": "contracts/CreateFunding.sol:CreateFunding",
            "label": "creator",
            "offset": 0,
            "slot": "8",
            "type": "t_address"
          },
          {
            "astId": 21,
            "contract": "contracts/CreateFunding.sol:CreateFunding",
            "label": "recipient",
            "offset": 0,
            "slot": "9",
            "type": "t_address"
          },
          {
            "astId": 23,
            "contract": "contracts/CreateFunding.sol:CreateFunding",
            "label": "timestamp",
            "offset": 0,
            "slot": "10",
            "type": "t_uint256"
          },
          {
            "astId": 25,
            "contract": "contracts/CreateFunding.sol:CreateFunding",
            "label": "isFundingComplete",
            "offset": 0,
            "slot": "11",
            "type": "t_bool"
          }
        ],
        "numberOfBytes": "384"
      },
      "t_uint256": {
        "encoding": "inplace",
        "label": "uint256",
        "numberOfBytes": "32"
      }
    }
  }
}